{
  "_format": "hh-sol-artifact-1",
  "contractName": "GameItem",
  "sourceName": "contracts/GameItem.sol",
  "abi": [
    {
      "inputs": [],
      "stateMutability": "nonpayable",
      "type": "constructor"
    },
    {
      "anonymous": false,
      "inputs": [
        {
          "indexed": true,
          "internalType": "address",
          "name": "owner",
          "type": "address"
        },
        {
          "indexed": true,
          "internalType": "address",
          "name": "approved",
          "type": "address"
        },
        {
          "indexed": true,
          "internalType": "uint256",
          "name": "tokenId",
          "type": "uint256"
        }
      ],
      "name": "Approval",
      "type": "event"
    },
    {
      "anonymous": false,
      "inputs": [
        {
          "indexed": true,
          "internalType": "address",
          "name": "owner",
          "type": "address"
        },
        {
          "indexed": true,
          "internalType": "address",
          "name": "operator",
          "type": "address"
        },
        {
          "indexed": false,
          "internalType": "bool",
          "name": "approved",
          "type": "bool"
        }
      ],
      "name": "ApprovalForAll",
      "type": "event"
    },
    {
      "anonymous": false,
      "inputs": [
        {
          "indexed": true,
          "internalType": "address",
          "name": "from",
          "type": "address"
        },
        {
          "indexed": true,
          "internalType": "address",
          "name": "to",
          "type": "address"
        },
        {
          "indexed": true,
          "internalType": "uint256",
          "name": "tokenId",
          "type": "uint256"
        }
      ],
      "name": "Transfer",
      "type": "event"
    },
    {
      "inputs": [
        {
          "internalType": "address",
          "name": "to",
          "type": "address"
        },
        {
          "internalType": "uint256",
          "name": "tokenId",
          "type": "uint256"
        }
      ],
      "name": "approve",
      "outputs": [],
      "stateMutability": "nonpayable",
      "type": "function"
    },
    {
      "inputs": [
        {
          "internalType": "address",
          "name": "player",
          "type": "address"
        },
        {
          "internalType": "string",
          "name": "",
          "type": "string"
        }
      ],
      "name": "awardItem",
      "outputs": [
        {
          "internalType": "uint256",
          "name": "",
          "type": "uint256"
        }
      ],
      "stateMutability": "nonpayable",
      "type": "function"
    },
    {
      "inputs": [
        {
          "internalType": "address",
          "name": "owner",
          "type": "address"
        }
      ],
      "name": "balanceOf",
      "outputs": [
        {
          "internalType": "uint256",
          "name": "",
          "type": "uint256"
        }
      ],
      "stateMutability": "view",
      "type": "function"
    },
    {
      "inputs": [
        {
          "internalType": "uint256",
          "name": "tokenId",
          "type": "uint256"
        }
      ],
      "name": "getApproved",
      "outputs": [
        {
          "internalType": "address",
          "name": "",
          "type": "address"
        }
      ],
      "stateMutability": "view",
      "type": "function"
    },
    {
      "inputs": [
        {
          "internalType": "address",
          "name": "owner",
          "type": "address"
        },
        {
          "internalType": "address",
          "name": "operator",
          "type": "address"
        }
      ],
      "name": "isApprovedForAll",
      "outputs": [
        {
          "internalType": "bool",
          "name": "",
          "type": "bool"
        }
      ],
      "stateMutability": "view",
      "type": "function"
    },
    {
      "inputs": [],
      "name": "name",
      "outputs": [
        {
          "internalType": "string",
          "name": "",
          "type": "string"
        }
      ],
      "stateMutability": "view",
      "type": "function"
    },
    {
      "inputs": [
        {
          "internalType": "uint256",
          "name": "tokenId",
          "type": "uint256"
        }
      ],
      "name": "ownerOf",
      "outputs": [
        {
          "internalType": "address",
          "name": "",
          "type": "address"
        }
      ],
      "stateMutability": "view",
      "type": "function"
    },
    {
      "inputs": [
        {
          "internalType": "address",
          "name": "from",
          "type": "address"
        },
        {
          "internalType": "address",
          "name": "to",
          "type": "address"
        },
        {
          "internalType": "uint256",
          "name": "tokenId",
          "type": "uint256"
        }
      ],
      "name": "safeTransferFrom",
      "outputs": [],
      "stateMutability": "nonpayable",
      "type": "function"
    },
    {
      "inputs": [
        {
          "internalType": "address",
          "name": "from",
          "type": "address"
        },
        {
          "internalType": "address",
          "name": "to",
          "type": "address"
        },
        {
          "internalType": "uint256",
          "name": "tokenId",
          "type": "uint256"
        },
        {
          "internalType": "bytes",
          "name": "_data",
          "type": "bytes"
        }
      ],
      "name": "safeTransferFrom",
      "outputs": [],
      "stateMutability": "nonpayable",
      "type": "function"
    },
    {
      "inputs": [
        {
          "internalType": "address",
          "name": "operator",
          "type": "address"
        },
        {
          "internalType": "bool",
          "name": "approved",
          "type": "bool"
        }
      ],
      "name": "setApprovalForAll",
      "outputs": [],
      "stateMutability": "nonpayable",
      "type": "function"
    },
    {
      "inputs": [
        {
          "internalType": "bytes4",
          "name": "interfaceId",
          "type": "bytes4"
        }
      ],
      "name": "supportsInterface",
      "outputs": [
        {
          "internalType": "bool",
          "name": "",
          "type": "bool"
        }
      ],
      "stateMutability": "view",
      "type": "function"
    },
    {
      "inputs": [],
      "name": "symbol",
      "outputs": [
        {
          "internalType": "string",
          "name": "",
          "type": "string"
        }
      ],
      "stateMutability": "view",
      "type": "function"
    },
    {
      "inputs": [
        {
          "internalType": "uint256",
          "name": "index",
          "type": "uint256"
        }
      ],
      "name": "tokenByIndex",
      "outputs": [
        {
          "internalType": "uint256",
          "name": "",
          "type": "uint256"
        }
      ],
      "stateMutability": "view",
      "type": "function"
    },
    {
      "inputs": [
        {
          "internalType": "address",
          "name": "owner",
          "type": "address"
        },
        {
          "internalType": "uint256",
          "name": "index",
          "type": "uint256"
        }
      ],
      "name": "tokenOfOwnerByIndex",
      "outputs": [
        {
          "internalType": "uint256",
          "name": "",
          "type": "uint256"
        }
      ],
      "stateMutability": "view",
      "type": "function"
    },
    {
      "inputs": [
        {
          "internalType": "uint256",
          "name": "tokenId",
          "type": "uint256"
        }
      ],
      "name": "tokenURI",
      "outputs": [
        {
          "internalType": "string",
          "name": "",
          "type": "string"
        }
      ],
      "stateMutability": "view",
      "type": "function"
    },
    {
      "inputs": [],
      "name": "totalSupply",
      "outputs": [
        {
          "internalType": "uint256",
          "name": "",
          "type": "uint256"
        }
      ],
      "stateMutability": "view",
      "type": "function"
    },
    {
      "inputs": [
        {
          "internalType": "address",
          "name": "from",
          "type": "address"
        },
        {
          "internalType": "address",
          "name": "to",
          "type": "address"
        },
        {
          "internalType": "uint256",
          "name": "tokenId",
          "type": "uint256"
        }
      ],
      "name": "transferFrom",
      "outputs": [],
      "stateMutability": "nonpayable",
      "type": "function"
    }
  ],
  "bytecode": "0x60806040523480156200001157600080fd5b50604080518082018252600881526747616d654974656d60c01b60208083019182528351808501909452600384526249544d60e81b9084015281519192916200005d916000916200007c565b508051620000739060019060208401906200007c565b5050506200015f565b8280546200008a9062000122565b90600052602060002090601f016020900481019282620000ae5760008555620000f9565b82601f10620000c957805160ff1916838001178555620000f9565b82800160010185558215620000f9579182015b82811115620000f9578251825591602001919060010190620000dc565b50620001079291506200010b565b5090565b5b808211156200010757600081556001016200010c565b600181811c908216806200013757607f821691505b602082108114156200015957634e487b7160e01b600052602260045260246000fd5b50919050565b611aa4806200016f6000396000f3fe608060405234801561001057600080fd5b506004361061011b5760003560e01c80634f6ccce7116100b2578063a22cb46511610081578063c87b56dd11610066578063c87b56dd1461024f578063cf37834314610262578063e985e9c51461027557600080fd5b8063a22cb46514610229578063b88d4fde1461023c57600080fd5b80634f6ccce7146101e85780636352211e146101fb57806370a082311461020e57806395d89b411461022157600080fd5b806318160ddd116100ee57806318160ddd1461019d57806323b872dd146101af5780632f745c59146101c257806342842e0e146101d557600080fd5b806301ffc9a71461012057806306fdde0314610148578063081812fc1461015d578063095ea7b314610188575b600080fd5b61013361012e366004611811565b6102b1565b60405190151581526020015b60405180910390f35b6101506102f5565b60405161013f91906118fb565b61017061016b36600461184b565b610387565b6040516001600160a01b03909116815260200161013f565b61019b6101963660046117e7565b610421565b005b6008545b60405190815260200161013f565b61019b6101bd366004611691565b610553565b6101a16101d03660046117e7565b6105da565b61019b6101e3366004611691565b610682565b6101a16101f636600461184b565b61069d565b61017061020936600461184b565b610741565b6101a161021c366004611643565b6107cc565b610150610866565b61019b610237366004611749565b610875565b61019b61024a3660046116cd565b610884565b61015061025d36600461184b565b610912565b6101a1610270366004611785565b610a08565b61013361028336600461165e565b6001600160a01b03918216600090815260056020908152604080832093909416825291909152205460ff1690565b60006001600160e01b031982167f780e9d630000000000000000000000000000000000000000000000000000000014806102ef57506102ef82610a2f565b92915050565b6060600080546103049061197d565b80601f01602080910402602001604051908101604052809291908181526020018280546103309061197d565b801561037d5780601f106103525761010080835404028352916020019161037d565b820191906000526020600020905b81548152906001019060200180831161036057829003601f168201915b5050505050905090565b6000818152600260205260408120546001600160a01b03166104055760405162461bcd60e51b815260206004820152602c60248201527f4552433732313a20617070726f76656420717565727920666f72206e6f6e657860448201526b34b9ba32b73a103a37b5b2b760a11b60648201526084015b60405180910390fd5b506000908152600460205260409020546001600160a01b031690565b600061042c82610741565b9050806001600160a01b0316836001600160a01b031614156104b65760405162461bcd60e51b815260206004820152602160248201527f4552433732313a20617070726f76616c20746f2063757272656e74206f776e6560448201527f720000000000000000000000000000000000000000000000000000000000000060648201526084016103fc565b336001600160a01b03821614806104d257506104d28133610283565b6105445760405162461bcd60e51b815260206004820152603860248201527f4552433732313a20617070726f76652063616c6c6572206973206e6f74206f7760448201527f6e6572206e6f7220617070726f76656420666f7220616c6c000000000000000060648201526084016103fc565b61054e8383610aca565b505050565b61055d3382610b45565b6105cf5760405162461bcd60e51b815260206004820152603160248201527f4552433732313a207472616e736665722063616c6c6572206973206e6f74206f60448201527f776e6572206e6f7220617070726f76656400000000000000000000000000000060648201526084016103fc565b61054e838383610c3c565b60006105e5836107cc565b82106106595760405162461bcd60e51b815260206004820152602b60248201527f455243373231456e756d657261626c653a206f776e657220696e646578206f7560448201527f74206f6620626f756e647300000000000000000000000000000000000000000060648201526084016103fc565b506001600160a01b03919091166000908152600660209081526040808320938352929052205490565b61054e83838360405180602001604052806000815250610884565b60006106a860085490565b821061071c5760405162461bcd60e51b815260206004820152602c60248201527f455243373231456e756d657261626c653a20676c6f62616c20696e646578206f60448201527f7574206f6620626f756e6473000000000000000000000000000000000000000060648201526084016103fc565b6008828154811061072f5761072f611a29565b90600052602060002001549050919050565b6000818152600260205260408120546001600160a01b0316806102ef5760405162461bcd60e51b815260206004820152602960248201527f4552433732313a206f776e657220717565727920666f72206e6f6e657869737460448201527f656e7420746f6b656e000000000000000000000000000000000000000000000060648201526084016103fc565b60006001600160a01b03821661084a5760405162461bcd60e51b815260206004820152602a60248201527f4552433732313a2062616c616e636520717565727920666f7220746865207a6560448201527f726f20616464726573730000000000000000000000000000000000000000000060648201526084016103fc565b506001600160a01b031660009081526003602052604090205490565b6060600180546103049061197d565b610880338383610e21565b5050565b61088e3383610b45565b6109005760405162461bcd60e51b815260206004820152603160248201527f4552433732313a207472616e736665722063616c6c6572206973206e6f74206f60448201527f776e6572206e6f7220617070726f76656400000000000000000000000000000060648201526084016103fc565b61090c84848484610ef0565b50505050565b6000818152600260205260409020546060906001600160a01b031661099f5760405162461bcd60e51b815260206004820152602f60248201527f4552433732314d657461646174613a2055524920717565727920666f72206e6f60448201527f6e6578697374656e7420746f6b656e000000000000000000000000000000000060648201526084016103fc565b60006109b660408051602081019091526000815290565b905060008151116109d65760405180602001604052806000815250610a01565b806109e084610f79565b6040516020016109f1929190611890565b6040516020818303038152906040525b9392505050565b6000610a18600a80546001019055565b6000610a23600a5490565b9050610a0184826110ab565b60006001600160e01b031982167f80ac58cd000000000000000000000000000000000000000000000000000000001480610a9257506001600160e01b031982167f5b5e139f00000000000000000000000000000000000000000000000000000000145b806102ef57507f01ffc9a7000000000000000000000000000000000000000000000000000000006001600160e01b03198316146102ef565b6000818152600460205260409020805473ffffffffffffffffffffffffffffffffffffffff19166001600160a01b0384169081179091558190610b0c82610741565b6001600160a01b03167f8c5be1e5ebec7d5bd14f71427d1e84f3dd0314c0f7b2291e5b200ac8c7c3b92560405160405180910390a45050565b6000818152600260205260408120546001600160a01b0316610bbe5760405162461bcd60e51b815260206004820152602c60248201527f4552433732313a206f70657261746f7220717565727920666f72206e6f6e657860448201526b34b9ba32b73a103a37b5b2b760a11b60648201526084016103fc565b6000610bc983610741565b9050806001600160a01b0316846001600160a01b03161480610c1057506001600160a01b0380821660009081526005602090815260408083209388168352929052205460ff165b80610c345750836001600160a01b0316610c2984610387565b6001600160a01b0316145b949350505050565b826001600160a01b0316610c4f82610741565b6001600160a01b031614610ccb5760405162461bcd60e51b815260206004820152602560248201527f4552433732313a207472616e736665722066726f6d20696e636f72726563742060448201527f6f776e657200000000000000000000000000000000000000000000000000000060648201526084016103fc565b6001600160a01b038216610d465760405162461bcd60e51b8152602060048201526024808201527f4552433732313a207472616e7366657220746f20746865207a65726f2061646460448201527f726573730000000000000000000000000000000000000000000000000000000060648201526084016103fc565b610d51838383611206565b610d5c600082610aca565b6001600160a01b0383166000908152600360205260408120805460019290610d8590849061193a565b90915550506001600160a01b0382166000908152600360205260408120805460019290610db390849061190e565b9091555050600081815260026020526040808220805473ffffffffffffffffffffffffffffffffffffffff19166001600160a01b0386811691821790925591518493918716917fddf252ad1be2c89b69c2b068fc378daa952ba7f163c4a11628f55a4df523b3ef91a4505050565b816001600160a01b0316836001600160a01b03161415610e835760405162461bcd60e51b815260206004820152601960248201527f4552433732313a20617070726f766520746f2063616c6c65720000000000000060448201526064016103fc565b6001600160a01b03838116600081815260056020908152604080832094871680845294825291829020805460ff191686151590811790915591519182527f17307eab39ab6107e8899845ad3d59bd9653f200f220920489ca2b5937696c31910160405180910390a3505050565b610efb848484610c3c565b610f07848484846112be565b61090c5760405162461bcd60e51b815260206004820152603260248201527f4552433732313a207472616e7366657220746f206e6f6e20455243373231526560448201527f63656976657220696d706c656d656e746572000000000000000000000000000060648201526084016103fc565b606081610fb957505060408051808201909152600181527f3000000000000000000000000000000000000000000000000000000000000000602082015290565b8160005b8115610fe35780610fcd816119b8565b9150610fdc9050600a83611926565b9150610fbd565b60008167ffffffffffffffff811115610ffe57610ffe611a3f565b6040519080825280601f01601f191660200182016040528015611028576020820181803683370190505b5090505b8415610c345761103d60018361193a565b915061104a600a866119d3565b61105590603061190e565b60f81b81838151811061106a5761106a611a29565b60200101907effffffffffffffffffffffffffffffffffffffffffffffffffffffffffffff1916908160001a9053506110a4600a86611926565b945061102c565b6001600160a01b0382166111015760405162461bcd60e51b815260206004820181905260248201527f4552433732313a206d696e7420746f20746865207a65726f206164647265737360448201526064016103fc565b6000818152600260205260409020546001600160a01b0316156111665760405162461bcd60e51b815260206004820152601c60248201527f4552433732313a20746f6b656e20616c7265616479206d696e7465640000000060448201526064016103fc565b61117260008383611206565b6001600160a01b038216600090815260036020526040812080546001929061119b90849061190e565b9091555050600081815260026020526040808220805473ffffffffffffffffffffffffffffffffffffffff19166001600160a01b03861690811790915590518392907fddf252ad1be2c89b69c2b068fc378daa952ba7f163c4a11628f55a4df523b3ef908290a45050565b6001600160a01b0383166112615761125c81600880546000838152600960205260408120829055600182018355919091527ff3f7a9fe364faab93b216da50a3214154f22a0a2b415b23a84c8169e8b636ee30155565b611284565b816001600160a01b0316836001600160a01b031614611284576112848382611421565b6001600160a01b03821661129b5761054e816114be565b826001600160a01b0316826001600160a01b03161461054e5761054e828261156d565b60006001600160a01b0384163b1561141657604051630a85bd0160e11b81526001600160a01b0385169063150b7a02906113029033908990889088906004016118bf565b602060405180830381600087803b15801561131c57600080fd5b505af192505050801561134c575060408051601f3d908101601f191682019092526113499181019061182e565b60015b6113fc573d80801561137a576040519150601f19603f3d011682016040523d82523d6000602084013e61137f565b606091505b5080516113f45760405162461bcd60e51b815260206004820152603260248201527f4552433732313a207472616e7366657220746f206e6f6e20455243373231526560448201527f63656976657220696d706c656d656e746572000000000000000000000000000060648201526084016103fc565b805181602001fd5b6001600160e01b031916630a85bd0160e11b149050610c34565b506001949350505050565b6000600161142e846107cc565b611438919061193a565b60008381526007602052604090205490915080821461148b576001600160a01b03841660009081526006602090815260408083208584528252808320548484528184208190558352600790915290208190555b5060009182526007602090815260408084208490556001600160a01b039094168352600681528383209183525290812055565b6008546000906114d09060019061193a565b600083815260096020526040812054600880549394509092849081106114f8576114f8611a29565b90600052602060002001549050806008838154811061151957611519611a29565b600091825260208083209091019290925582815260099091526040808220849055858252812055600880548061155157611551611a13565b6001900381819060005260206000200160009055905550505050565b6000611578836107cc565b6001600160a01b039093166000908152600660209081526040808320868452825280832085905593825260079052919091209190915550565b600067ffffffffffffffff808411156115cc576115cc611a3f565b604051601f8501601f19908116603f011681019082821181831017156115f4576115f4611a3f565b8160405280935085815286868601111561160d57600080fd5b858560208301376000602087830101525050509392505050565b80356001600160a01b038116811461163e57600080fd5b919050565b60006020828403121561165557600080fd5b610a0182611627565b6000806040838503121561167157600080fd5b61167a83611627565b915061168860208401611627565b90509250929050565b6000806000606084860312156116a657600080fd5b6116af84611627565b92506116bd60208501611627565b9150604084013590509250925092565b600080600080608085870312156116e357600080fd5b6116ec85611627565b93506116fa60208601611627565b925060408501359150606085013567ffffffffffffffff81111561171d57600080fd5b8501601f8101871361172e57600080fd5b61173d878235602084016115b1565b91505092959194509250565b6000806040838503121561175c57600080fd5b61176583611627565b91506020830135801515811461177a57600080fd5b809150509250929050565b6000806040838503121561179857600080fd5b6117a183611627565b9150602083013567ffffffffffffffff8111156117bd57600080fd5b8301601f810185136117ce57600080fd5b6117dd858235602084016115b1565b9150509250929050565b600080604083850312156117fa57600080fd5b61180383611627565b946020939093013593505050565b60006020828403121561182357600080fd5b8135610a0181611a55565b60006020828403121561184057600080fd5b8151610a0181611a55565b60006020828403121561185d57600080fd5b5035919050565b6000815180845261187c816020860160208601611951565b601f01601f19169290920160200192915050565b600083516118a2818460208801611951565b8351908301906118b6818360208801611951565b01949350505050565b60006001600160a01b038087168352808616602084015250836040830152608060608301526118f16080830184611864565b9695505050505050565b602081526000610a016020830184611864565b60008219821115611921576119216119e7565b500190565b600082611935576119356119fd565b500490565b60008282101561194c5761194c6119e7565b500390565b60005b8381101561196c578181015183820152602001611954565b8381111561090c5750506000910152565b600181811c9082168061199157607f821691505b602082108114156119b257634e487b7160e01b600052602260045260246000fd5b50919050565b60006000198214156119cc576119cc6119e7565b5060010190565b6000826119e2576119e26119fd565b500690565b634e487b7160e01b600052601160045260246000fd5b634e487b7160e01b600052601260045260246000fd5b634e487b7160e01b600052603160045260246000fd5b634e487b7160e01b600052603260045260246000fd5b634e487b7160e01b600052604160045260246000fd5b6001600160e01b031981168114611a6b57600080fd5b5056fea26469706673582212206f88a57129abe9284b0d4008e912618f28e2363146c39bab855e3b82ae7ffb7164736f6c63430008070033",
  "linkReferences": {},
  "deployedLinkReferences": {}
}