{
  "_format": "hh-sol-artifact-1",
  "contractName": "NftAsset",
  "sourceName": "contracts/Assets.sol",
  "abi": [
    {
      "inputs": [
        {
          "internalType": "address",
          "name": "originNftAddress_",
          "type": "address"
        },
        {
          "internalType": "address",
          "name": "guaranteeAddress_",
          "type": "address"
        },
        {
          "internalType": "uint256",
          "name": "minLeasePeriod_",
          "type": "uint256"
        },
        {
          "internalType": "uint256",
          "name": "guarantee_",
          "type": "uint256"
        },
        {
          "internalType": "uint256",
          "name": "platformFeeBase_",
          "type": "uint256"
        },
        {
          "internalType": "address",
          "name": "vault_",
          "type": "address"
        },
        {
          "internalType": "uint256",
          "name": "blameRewardPercenteage_",
          "type": "uint256"
        }
      ],
      "stateMutability": "nonpayable",
      "type": "constructor"
    },
    {
      "anonymous": false,
      "inputs": [
        {
          "indexed": true,
          "internalType": "uint256",
          "name": "tokenId",
          "type": "uint256"
        },
        {
          "indexed": true,
          "internalType": "address",
          "name": "tenant",
          "type": "address"
        },
        {
          "indexed": false,
          "internalType": "uint256",
          "name": "fee",
          "type": "uint256"
        },
        {
          "indexed": false,
          "internalType": "address",
          "name": "payToken",
          "type": "address"
        }
      ],
      "name": "LeaseFrom",
      "type": "event"
    },
    {
      "anonymous": false,
      "inputs": [
        {
          "indexed": true,
          "internalType": "address",
          "name": "previousOwner",
          "type": "address"
        },
        {
          "indexed": true,
          "internalType": "address",
          "name": "newOwner",
          "type": "address"
        }
      ],
      "name": "OwnershipTransferred",
      "type": "event"
    },
    {
      "anonymous": false,
      "inputs": [
        {
          "indexed": true,
          "internalType": "uint256",
          "name": "tokenId",
          "type": "uint256"
        },
        {
          "indexed": true,
          "internalType": "address",
          "name": "lessor",
          "type": "address"
        },
        {
          "indexed": false,
          "internalType": "uint256",
          "name": "expiration",
          "type": "uint256"
        },
        {
          "indexed": false,
          "internalType": "uint256",
          "name": "fee",
          "type": "uint256"
        },
        {
          "indexed": false,
          "internalType": "address",
          "name": "payToken",
          "type": "address"
        }
      ],
      "name": "PutUpForLease",
      "type": "event"
    },
    {
      "inputs": [],
      "name": "MAX_SUB_LEVEL",
      "outputs": [
        {
          "internalType": "uint8",
          "name": "",
          "type": "uint8"
        }
      ],
      "stateMutability": "view",
      "type": "function"
    },
    {
      "inputs": [
        {
          "internalType": "address",
          "name": "account",
          "type": "address"
        }
      ],
      "name": "balanceOf",
      "outputs": [
        {
          "internalType": "uint256",
          "name": "",
          "type": "uint256"
        }
      ],
      "stateMutability": "view",
      "type": "function"
    },
    {
      "inputs": [
        {
          "internalType": "uint256",
          "name": "tokenId",
          "type": "uint256"
        }
      ],
      "name": "blame",
      "outputs": [],
      "stateMutability": "nonpayable",
      "type": "function"
    },
    {
      "inputs": [],
      "name": "blameRewardPercentage",
      "outputs": [
        {
          "internalType": "uint256",
          "name": "",
          "type": "uint256"
        }
      ],
      "stateMutability": "view",
      "type": "function"
    },
    {
      "inputs": [
        {
          "internalType": "uint256",
          "name": "tokenId",
          "type": "uint256"
        }
      ],
      "name": "endLease",
      "outputs": [],
      "stateMutability": "nonpayable",
      "type": "function"
    },
    {
      "inputs": [],
      "name": "getListedTokenId",
      "outputs": [
        {
          "internalType": "uint256[]",
          "name": "",
          "type": "uint256[]"
        }
      ],
      "stateMutability": "view",
      "type": "function"
    },
    {
      "inputs": [
        {
          "internalType": "uint256",
          "name": "tokenId",
          "type": "uint256"
        }
      ],
      "name": "getPayToken",
      "outputs": [
        {
          "internalType": "address",
          "name": "",
          "type": "address"
        }
      ],
      "stateMutability": "view",
      "type": "function"
    },
    {
      "inputs": [],
      "name": "guarantee",
      "outputs": [
        {
          "internalType": "uint256",
          "name": "",
          "type": "uint256"
        }
      ],
      "stateMutability": "view",
      "type": "function"
    },
    {
      "inputs": [],
      "name": "guaranteeAddress",
      "outputs": [
        {
          "internalType": "address",
          "name": "",
          "type": "address"
        }
      ],
      "stateMutability": "view",
      "type": "function"
    },
    {
      "inputs": [
        {
          "internalType": "uint256",
          "name": "tokenId",
          "type": "uint256"
        }
      ],
      "name": "isInLease",
      "outputs": [
        {
          "internalType": "bool",
          "name": "",
          "type": "bool"
        }
      ],
      "stateMutability": "view",
      "type": "function"
    },
    {
      "inputs": [
        {
          "internalType": "uint256",
          "name": "tokenId",
          "type": "uint256"
        }
      ],
      "name": "leaseFrom",
      "outputs": [],
      "stateMutability": "nonpayable",
      "type": "function"
    },
    {
      "inputs": [],
      "name": "minLeasePeriod",
      "outputs": [
        {
          "internalType": "uint256",
          "name": "",
          "type": "uint256"
        }
      ],
      "stateMutability": "view",
      "type": "function"
    },
    {
      "inputs": [],
      "name": "originNftAddress",
      "outputs": [
        {
          "internalType": "address",
          "name": "",
          "type": "address"
        }
      ],
      "stateMutability": "view",
      "type": "function"
    },
    {
      "inputs": [],
      "name": "owner",
      "outputs": [
        {
          "internalType": "address",
          "name": "",
          "type": "address"
        }
      ],
      "stateMutability": "view",
      "type": "function"
    },
    {
      "inputs": [
        {
          "internalType": "uint256",
          "name": "tokenId",
          "type": "uint256"
        }
      ],
      "name": "ownerOf",
      "outputs": [
        {
          "internalType": "address",
          "name": "",
          "type": "address"
        }
      ],
      "stateMutability": "view",
      "type": "function"
    },
    {
      "inputs": [
        {
          "internalType": "uint256",
          "name": "tokenId",
          "type": "uint256"
        }
      ],
      "name": "phantomOwner",
      "outputs": [
        {
          "internalType": "address",
          "name": "",
          "type": "address"
        },
        {
          "internalType": "uint256",
          "name": "",
          "type": "uint256"
        },
        {
          "internalType": "uint8",
          "name": "",
          "type": "uint8"
        }
      ],
      "stateMutability": "view",
      "type": "function"
    },
    {
      "inputs": [],
      "name": "platformFeeBase",
      "outputs": [
        {
          "internalType": "uint256",
          "name": "",
          "type": "uint256"
        }
      ],
      "stateMutability": "view",
      "type": "function"
    },
    {
      "inputs": [
        {
          "internalType": "uint256",
          "name": "tokenId",
          "type": "uint256"
        },
        {
          "internalType": "uint256",
          "name": "expiration",
          "type": "uint256"
        },
        {
          "internalType": "uint256",
          "name": "fee",
          "type": "uint256"
        },
        {
          "internalType": "address",
          "name": "payToken",
          "type": "address"
        }
      ],
      "name": "putUpForLease",
      "outputs": [],
      "stateMutability": "nonpayable",
      "type": "function"
    },
    {
      "inputs": [],
      "name": "renounceOwnership",
      "outputs": [],
      "stateMutability": "nonpayable",
      "type": "function"
    },
    {
      "inputs": [
        {
          "internalType": "uint256",
          "name": "guarantee_",
          "type": "uint256"
        }
      ],
      "name": "setGuarantee",
      "outputs": [],
      "stateMutability": "nonpayable",
      "type": "function"
    },
    {
      "inputs": [
        {
          "internalType": "address",
          "name": "account",
          "type": "address"
        },
        {
          "internalType": "uint256",
          "name": "index",
          "type": "uint256"
        }
      ],
      "name": "tokenOfOwnerByIndex",
      "outputs": [
        {
          "internalType": "uint256",
          "name": "",
          "type": "uint256"
        }
      ],
      "stateMutability": "view",
      "type": "function"
    },
    {
      "inputs": [
        {
          "internalType": "address",
          "name": "newOwner",
          "type": "address"
        }
      ],
      "name": "transferOwnership",
      "outputs": [],
      "stateMutability": "nonpayable",
      "type": "function"
    },
    {
      "inputs": [],
      "name": "vault",
      "outputs": [
        {
          "internalType": "address",
          "name": "",
          "type": "address"
        }
      ],
      "stateMutability": "view",
      "type": "function"
    },
    {
      "inputs": [
        {
          "internalType": "address",
          "name": "tokenAddress",
          "type": "address"
        }
      ],
      "name": "withdraw",
      "outputs": [],
      "stateMutability": "nonpayable",
      "type": "function"
    }
  ],
  "bytecode": "0x6101006040523480156200001257600080fd5b5060405162002719380380620027198339810160408190526200003591620000e7565b62000040336200007a565b6001600160601b0319606097881b811660805295871b861660c05260a09490945260019290925560035590921b1660e05260025562000158565b600080546001600160a01b038381166001600160a01b0319831681178455604051919092169283917f8be0079c531659141344cd1fd0a4f28419497f9722a3daafe3b4186f6b6457e09190a35050565b80516001600160a01b0381168114620000e257600080fd5b919050565b600080600080600080600060e0888a0312156200010357600080fd5b6200010e88620000ca565b96506200011e60208901620000ca565b95506040880151945060608801519350608088015192506200014360a08901620000ca565b915060c0880151905092959891949750929550565b60805160601c60a05160c05160601c60e05160601c61252a620001ef600039600081816103ed01526117e50152600081816102860152818161066f01528181610c9401528181611065015281816113d40152611ec60152600081816103220152610f9a0152600081816101e201528181610b0501528181610e3a01528181611256015281816115cf0152611aa9015261252a6000f3fe608060405234801561001057600080fd5b50600436106101985760003560e01c80638da5cb5b116100e3578063ba0d596b1161008c578063f3835e3811610066578063f3835e38146103c2578063f84f0188146103d5578063fbfa77cf146103e857600080fd5b8063ba0d596b14610360578063d42cfc7214610375578063f2fde38b146103af57600080fd5b8063adc71ca2116100bd578063adc71ca21461031d578063b1c611de14610344578063b8a396961461035757600080fd5b80638da5cb5b146102e657806391ef935c146102f7578063adaf91911461030a57600080fd5b80636352211e11610145578063715018a61161011f578063715018a6146102bb5780637c3e765d146102c35780638466f327146102dd57600080fd5b80636352211e1461026e5780636b81b5b31461028157806370a08231146102a857600080fd5b80632f745c59116101765780632f745c591461023357806334f894f61461024657806351cff8d91461025b57600080fd5b806311b57e1c1461019d5780631eb4968a146101dd578063263c4b531461021c575b600080fd5b6101b06101ab36600461230f565b61040f565b604080516001600160a01b039094168452602084019290925260ff16908201526060015b60405180910390f35b6102047f000000000000000000000000000000000000000000000000000000000000000081565b6040516001600160a01b0390911681526020016101d4565b61022560015481565b6040519081526020016101d4565b6102256102413660046122c1565b6104d9565b61025961025436600461230f565b61059a565b005b610259610269366004612280565b61066d565b61020461027c36600461230f565b61087c565b6102047f000000000000000000000000000000000000000000000000000000000000000081565b6102256102b6366004612280565b610892565b61025961091c565b6102cb600381565b60405160ff90911681526020016101d4565b61022560025481565b6000546001600160a01b0316610204565b61025961030536600461230f565b610982565b610259610318366004612328565b610cde565b6102257f000000000000000000000000000000000000000000000000000000000000000081565b61025961035236600461230f565b611224565b61022560035481565b610368611411565b6040516101d49190612369565b61039f61038336600461230f565b600090815260056020526040902054600160a01b900460ff1690565b60405190151581526020016101d4565b6102596103bd366004612280565b611469565b6102596103d036600461230f565b611548565b6102046103e336600461230f565b61198c565b6102047f000000000000000000000000000000000000000000000000000000000000000081565b6000818152600560205260408120805482918291600160a81b900460ff165b60ff8116156104c45760ff8116600090815260048301602052604090206002015442108015610479575060ff811660009081526004830160205260409020546001600160a01b031615155b156104b25760ff811660009081526004909201602052604090912080546002909101546001600160a01b039091169450925090506104d2565b806104bc81612465565b91505061042e565b506000806000935093509350505b9193909250565b6001600160a01b03821660009081526004602052604081208190815b815481101561058c574282600101600084600001848154811061051a5761051a6124c9565b9060005260206000200154815260200190815260200160002054111561057a578483141561056c57816000018181548110610557576105576124c9565b90600052602060002001549350505050610594565b8261057681612482565b9350505b8061058481612482565b9150506104f5565b506000925050505b92915050565b6000546001600160a01b031633146105f95760405162461bcd60e51b815260206004820181905260248201527f4f776e61626c653a2063616c6c6572206973206e6f7420746865206f776e657260448201526064015b60405180910390fd5b6000546001600160a01b0316331461061057600080fd5b674563918244f400008110156106685760405162461bcd60e51b815260206004820152601a60248201527f41737365743a2067756172616e74656520746f6f20736d616c6c00000000000060448201526064016105f0565b600155565b7f00000000000000000000000000000000000000000000000000000000000000006001600160a01b0316816001600160a01b031614156107aa5733600090815260076020526040902054806107105760405162461bcd60e51b815260206004820152602360248201527f41737365743a20596f752068617665206e6f7468696e6720746f20776974686460448201526272617760e81b60648201526084016105f0565b33600081815260076020526040808220919091555163a9059cbb60e01b81526004810191909152602481018290526001600160a01b0383169063a9059cbb906044015b602060405180830381600087803b15801561076d57600080fd5b505af1158015610781573d6000803e3d6000fd5b505050506040513d601f19601f820116820180604052508101906107a591906122ed565b505050565b3360009081526006602090815260408083206001600160a01b0385168452909152902054806108275760405162461bcd60e51b815260206004820152602360248201527f41737365743a20596f752068617665206e6f7468696e6720746f20776974686460448201526272617760e81b60648201526084016105f0565b3360008181526006602090815260408083206001600160a01b038716808552925280832092909255905163a9059cbb60e01b81526004810192909252602482018390529063a9059cbb90604401610753565b50565b6000806108888361040f565b5090949350505050565b6001600160a01b03811660009081526004602052604081208190815b815481101561091357428260010160008460000184815481106108d3576108d36124c9565b9060005260206000200154815260200190815260200160002054111561090157826108fd81612482565b9350505b8061090b81612482565b9150506108ae565b50909392505050565b6000546001600160a01b031633146109765760405162461bcd60e51b815260206004820181905260248201527f4f776e61626c653a2063616c6c6572206973206e6f7420746865206f776e657260448201526064016105f0565b61098060006119d4565b565b600081815260056020526040902054600160a81b900460ff166109e75760405162461bcd60e51b815260206004820152601860248201527f41737365743a2043616e206e6f7420656e64206c65617365000000000000000060448201526064016105f0565b6000818152600560209081526040808320600184526004019091529020600201544211610a565760405162461bcd60e51b815260206004820152601860248201527f41737365743a204c6561736520696e2070726f6772657373000000000000000060448201526064016105f0565b600081815260056020526040812054600160a81b900460ff165b60ff811615610ac457600083815260056020908152604080832060ff851684526004019091529020546001600160a01b0316331415610ab25760019150610ac4565b80610abc81612465565b915050610a70565b6000838152600560205260408120546001600160a01b031633148015610b8a57506040516331a9108f60e11b81526004810185905233906001600160a01b037f00000000000000000000000000000000000000000000000000000000000000001690636352211e9060240160206040518083038186803b158015610b4757600080fd5b505afa158015610b5b573d6000803e3d6000fd5b505050506040513d601f19601f82011682018060405250810190610b7f91906122a4565b6001600160a01b0316145b90508280610b955750805b610be15760405162461bcd60e51b815260206004820152601560248201527f41737365743a204e6f742076616c69642075736572000000000000000000000060448201526064016105f0565b6000806000610bef87611a24565b93505092509250610c008782611ce4565b825115610c375760008781526005602052604090206003810154600190910154610c379185918591906001600160a01b0316611deb565b8315610c785760008781526005602090815260408083206002015433845260079092528220805491929091610c6d9084906123ad565b90915550610cb89050565b600087815260056020526040902060020154610cb890849084907f0000000000000000000000000000000000000000000000000000000000000000611deb565b610cc3876000611ce4565b610ccc876120bf565b610cd5876121c8565b50505050505050565b6000848152600560205260409020548490600160a01b900460ff1615610d465760405162461bcd60e51b815260206004820152601860248201527f41737365743a20546f6b656e20697320696e206c65617365000000000000000060448201526064016105f0565b600080610d528761040f565b9250509150600360ff168160ff161115610dae5760405162461bcd60e51b815260206004820152601b60248201527f41737365743a204c65617365206c6576656c206578636565646564000000000060448201526064016105f0565b6001600160a01b03821615610e1a576001600160a01b0382163314610e155760405162461bcd60e51b815260206004820152601260248201527f41737365743a2057726f6e67207573657230000000000000000000000000000060448201526064016105f0565b610f98565b6040516331a9108f60e11b81526004810188905233906001600160a01b037f00000000000000000000000000000000000000000000000000000000000000001690636352211e9060240160206040518083038186803b158015610e7c57600080fd5b505afa158015610e90573d6000803e3d6000fd5b505050506040513d601f19601f82011682018060405250810190610eb491906122a4565b6001600160a01b031614610f0a5760405162461bcd60e51b815260206004820152601260248201527f41737365743a2057726f6e67207573657231000000000000000000000000000060448201526064016105f0565b6001600160a01b038416610f605760405162461bcd60e51b815260206004820152601860248201527f41737365743a20496e76616c69642070617920746f6b656e000000000000000060448201526064016105f0565b60008781526005602052604090208054336001600160a01b0319918216178255600190910180549091166001600160a01b0386161790555b7f0000000000000000000000000000000000000000000000000000000000000000610fc3428861242b565b10156110115760405162461bcd60e51b815260206004820152601d60248201527f41737365743a204c6561736520706572696f6420746f6f2073686f727400000060448201526064016105f0565b60008781526005602052604090205460ff600160a81b9091048116908216101561103f5761103f8782611ce4565b6001546040516323b872dd60e01b815233600482015230602482015260448101919091527f00000000000000000000000000000000000000000000000000000000000000006001600160a01b0316906323b872dd90606401602060405180830381600087803b1580156110b157600080fd5b505af11580156110c5573d6000803e3d6000fd5b505050506040513d601f19601f820116820180604052508101906110e991906122ed565b5060018054336000908152600760209081526040808320939093558a82526005905290812054909161112591600160a81b900460ff16906123c5565b600089815260056020818152604080842060ff861680865260048201845282862060018082018f905560029091018f9055948452815460ff60a01b19600160a81b909202919091167fffffffffffffffffffff0000ffffffffffffffffffffffffffffffffffffffff90911617600160a01b1790556008805493840181559093527ff3f7a9fe364faab93b216da50a3214154f22a0a2b415b23a84c8169e8b636ee39091018b905581518a81529081018990526001600160a01b03881681830152905191925033918a917f3f8f6a49c90a1b40c700390b5729b9d0ce054440077eb06d2fde3ead45adcac4919081900360600190a35050505050505050565b600081815260056020526040908190205490516331a9108f60e11b8152600481018390526001600160a01b03918216917f00000000000000000000000000000000000000000000000000000000000000001690636352211e9060240160206040518083038186803b15801561129857600080fd5b505afa1580156112ac573d6000803e3d6000fd5b505050506040513d601f19601f820116820180604052508101906112d091906122a4565b6001600160a01b0316146113265760405162461bcd60e51b815260206004820152601760248201527f41737365743a204e6f7468696e6720746f20626c616d6500000000000000000060448201526064016105f0565b60008061133283611a24565b50506000858152600560205260409020600381015460019091015492945090925061136991849184916001600160a01b0316611deb565b6000838152600560205260408120600290810154905490919060649061138f908461240c565b61139991906123ea565b336000908152600760205260408120805492935083929091906113bd9084906123ad565b909155506113f8905084846113d2848661242b565b7f0000000000000000000000000000000000000000000000000000000000000000611deb565b611401856120bf565b61140a856121c8565b5050505050565b6060600880548060200260200160405190810160405280929190818152602001828054801561145f57602002820191906000526020600020905b81548152602001906001019080831161144b575b5050505050905090565b6000546001600160a01b031633146114c35760405162461bcd60e51b815260206004820181905260248201527f4f776e61626c653a2063616c6c6572206973206e6f7420746865206f776e657260448201526064016105f0565b6001600160a01b03811661153f5760405162461bcd60e51b815260206004820152602660248201527f4f776e61626c653a206e6577206f776e657220697320746865207a65726f206160448201527f646472657373000000000000000000000000000000000000000000000000000060648201526084016105f0565b610879816119d4565b6000818152600560205260409020548190600160a01b900460ff166115af5760405162461bcd60e51b815260206004820152601c60248201527f41737365743a20546f6b656e206973206e6f7420696e206c656173650000000060448201526064016105f0565b6040516331a9108f60e11b81526004810183905233906001600160a01b037f00000000000000000000000000000000000000000000000000000000000000001690636352211e9060240160206040518083038186803b15801561161157600080fd5b505afa158015611625573d6000803e3d6000fd5b505050506040513d601f19601f8201168201806040525081019061164991906122a4565b6001600160a01b031614156116a05760405162461bcd60e51b815260206004820152601d60248201527f4173736574206c656173653a20596f752063616e206e6f742072656e7400000060448201526064016105f0565b600082815260056020526040902054600160a01b900460ff166117055760405162461bcd60e51b815260206004820152601960248201527f4173736574206c656173653a204e6f7420696e206c656173650000000000000060448201526064016105f0565b60008281526005602090815260408083208054600160a81b900460ff168085526004808301909452938290206001908101549082015492516323b872dd60e01b815233948101949094523060248501526044840181905290939290916001600160a01b0316906323b872dd90606401602060405180830381600087803b15801561178e57600080fd5b505af11580156117a2573d6000803e3d6000fd5b505050506040513d601f19601f820116820180604052508101906117c691906122ed565b5060018301546003546001600160a01b03909116906323b872dd9033907f00000000000000000000000000000000000000000000000000000000000000009061271090611813908761240c565b61181d91906123ea565b6040517fffffffff0000000000000000000000000000000000000000000000000000000060e086901b1681526001600160a01b0393841660048201529290911660248301526044820152606401602060405180830381600087803b15801561188457600080fd5b505af1158015611898573d6000803e3d6000fd5b505050506040513d601f19601f820116820180604052508101906118bc91906122ed565b50808360030160008282546118d191906123ad565b9091555050825460ff60a01b1916835560ff8216600090815260048085016020908152604080842080546001600160a01b0319163390811782556002909101549085529282528084208054600181810183558287528487209091018b90558a865201909152909120556001830154604080518381526001600160a01b039092166020830152339187917f427e4ef895025d77051bcb01a91d97424b6b37459a129ebe7c2a267b3b241339910160405180910390a35050505050565b6000806119988361040f565b50909150506001600160a01b0381166119b45750600092915050565b50506000908152600560205260409020600101546001600160a01b031690565b600080546001600160a01b038381166001600160a01b0319831681178455604051919092169283917f8be0079c531659141344cd1fd0a4f28419497f9722a3daafe3b4186f6b6457e09190a35050565b60408051600380825260808201909252606091829160009182918291602082018680368337505060408051600380825260808201909252929350600092915060208201606080368337019050506000888152600560205260408082205490516331a9108f60e11b8152600481018b9052929350909182916001600160a01b03908116917f000000000000000000000000000000000000000000000000000000000000000090911690636352211e9060240160206040518083038186803b158015611aed57600080fd5b505afa158015611b01573d6000803e3d6000fd5b505050506040513d601f19601f82011682018060405250810190611b2591906122a4565b6001600160a01b03161415611b3d5760009150611b42565b600191505b60008981526005602052604081208054909190600160a81b900460ff165b8460ff168160ff161115611cd15760ff8116600090815260048401602052604090206002015442108015611bb0575060ff811660009081526004840160205260409020546001600160a01b031615155b15611cbf5760ff811660009081526004840160205260409020600101548651879084908110611be157611be16124c9565b6020026020010181815250508060ff1660011415611c4057825487516001600160a01b0390911690889084908110611c1b57611c1b6124c9565b60200260200101906001600160a01b031690816001600160a01b031681525050611ca6565b600483016000611c51600184612442565b60ff16815260208101919091526040016000205487516001600160a01b0390911690889084908110611c8557611c856124c9565b60200260200101906001600160a01b031690816001600160a01b0316815250505b81611cb081612482565b92505060ff8416611cbf578093505b80611cc981612465565b915050611b60565b50949a9399509197509550909350505050565b60008281526005602052604090208054600160a81b900460ff165b8260ff168160ff161115611d7d578260ff168160ff16118015611d38575060ff8116600090815260048301602052604090206002015415155b15611d6b5760ff81166000908152600483016020526040812080546001600160a01b031916815560018101829055600201555b80611d7581612465565b915050611cff565b5080547fffffffffffffffffffff00ffffffffffffffffffffffffffffffffffffffffff16600160a81b60ff84169081029190911782556107a55750506000908152600560205260408120805460ff60a01b191681556001810180546001600160a01b031916905560030155565b82600081518110611dfe57611dfe6124c9565b602002602001015160001415611e565760405162461bcd60e51b815260206004820152601960248201527f41737365743a2043616e206e6f7420646973747269627574650000000000000060448201526064016105f0565b6000805b8451811015611ec357848181518110611e7557611e756124c9565b602002602001015160001415611e8a57611ec3565b848181518110611e9c57611e9c6124c9565b602002602001015182611eaf91906123ad565b915080611ebb81612482565b915050611e5a565b507f00000000000000000000000000000000000000000000000000000000000000006001600160a01b0316826001600160a01b03161415611fcc5760005b8551811015611fc657848181518110611f1c57611f1c6124c9565b602002602001015160001415611f3157611fc6565b81858281518110611f4457611f446124c9565b602002602001015185611f57919061240c565b611f6191906123ea565b60076000888481518110611f7757611f776124c9565b60200260200101516001600160a01b03166001600160a01b031681526020019081526020016000206000828254611fae91906123ad565b90915550819050611fbe81612482565b915050611f01565b5061140a565b60005b85518110156120b757848181518110611fea57611fea6124c9565b602002602001015160001415611fff576120b7565b81858281518110612012576120126124c9565b602002602001015185612025919061240c565b61202f91906123ea565b60066000888481518110612045576120456124c9565b60200260200101516001600160a01b03166001600160a01b031681526020019081526020016000206000856001600160a01b03166001600160a01b03168152602001908152602001600020600082825461209f91906123ad565b909155508190506120af81612482565b915050611fcf565b505050505050565b60006120ca8261040f565b50909150506001600160a01b038116156121c4576001600160a01b0381166000908152600460205260408120905b81548110156121c15783826000018281548110612117576121176124c9565b906000526020600020015414156121af57815482906121389060019061242b565b81548110612148576121486124c9565b9060005260206000200154826000018281548110612168576121686124c9565b6000918252602090912001558154829080612185576121856124b3565b60008281526020808220830160001990810183905590920190925585825260018401905260408120555b806121b981612482565b9150506120f8565b50505b5050565b60085460005b818110156107a55782600882815481106121ea576121ea6124c9565b9060005260206000200154141561226e57600861220860018461242b565b81548110612218576122186124c9565b906000526020600020015460088281548110612236576122366124c9565b6000918252602090912001556008805480612253576122536124b3565b60019003818190600052602060002001600090559055505050565b8061227881612482565b9150506121ce565b60006020828403121561229257600080fd5b813561229d816124df565b9392505050565b6000602082840312156122b657600080fd5b815161229d816124df565b600080604083850312156122d457600080fd5b82356122df816124df565b946020939093013593505050565b6000602082840312156122ff57600080fd5b8151801515811461229d57600080fd5b60006020828403121561232157600080fd5b5035919050565b6000806000806080858703121561233e57600080fd5b843593506020850135925060408501359150606085013561235e816124df565b939692955090935050565b6020808252825182820181905260009190848201906040850190845b818110156123a157835183529284019291840191600101612385565b50909695505050505050565b600082198211156123c0576123c061249d565b500190565b600060ff821660ff84168060ff038211156123e2576123e261249d565b019392505050565b60008261240757634e487b7160e01b600052601260045260246000fd5b500490565b60008160001904831182151516156124265761242661249d565b500290565b60008282101561243d5761243d61249d565b500390565b600060ff821660ff84168082101561245c5761245c61249d565b90039392505050565b600060ff8216806124785761247861249d565b6000190192915050565b60006000198214156124965761249661249d565b5060010190565b634e487b7160e01b600052601160045260246000fd5b634e487b7160e01b600052603160045260246000fd5b634e487b7160e01b600052603260045260246000fd5b6001600160a01b038116811461087957600080fdfea264697066735822122070f3996d00c08b28afcf70a9788db42c9b0bf4c40aa671a60f34860a10bff96564736f6c63430008070033",
  "linkReferences": {},
  "deployedLinkReferences": {}
}